S01A00004469676974616C324C6162334D61737465722E737265636C
S11300000C94B8000C94D5000C94D5000C94D50035
S11300100C94D5000C94D5000C94D5000C94D50008
S11300200C94D5000C94D5000C94D5000C94D500F8
S11300300C94D5000C94D5000C94D5000C94D500E8
S11300400C94D5000C94D5000C94DB010C94D500D1
S11300500C94D5000C94D5000C94D5000C94D500C8
S11300600C94D5000C94D500390240024702510289
S11300705B0265026F0200407A10F35A00A0724ED0
S113008018090010A5D4E80000E87648170000E439
S11300900B54020000CA9A3B000000E1F505000081
S11300A080969800000040420F000000A0860100E6
S11300B00000102700000000E803000000006400B6
S11300C0000000000A000000000001000000000021
S11300D02C76D888DC674F0823DFC1DFAE59E1B145
S11300E0B796E5E3E453C63AE651997696E8E6C254
S11300F08426EB898C9B62ED407C6FFCEFBC9C9F5B
S113010040F2BAA56FA5F490055A2AF75C936B6C7C
S1130110F9676DC11BFCE0E40D47FEF520E6B50070
S1130120D0ED902E0300943577050080841E0800DE
S113013000204E0A000000C80C333333330F986E8E
S113014012831141EF8D2114893BE65516CFFEE64B
S1130150DB18D1844B381BF77C1D901DA4BBE42411
S1130160203284725E228100C9F124ECA1E53D278E
S113017011241FBECFEFD8E0DEBFCDBF11E0A0E059
S1130180B1E0E2ECFDE002C005900D92A031B107B0
S1130190D9F721E0A0E1B1E001C01D92A731B20777
S11301A0E1F70E9422010C94DF060C9400008823DE
S11301B024F495B1926095B903C095B19D7F95B92A
S11301C086FF04C095B1916095B903C095B19E7F37
S11301D095B985FF04C09BB190689BB903C09BB1DE
S11301E09F779BB984FF04C09BB190649BB903C003
S11301F09BB19F7B9BB983FF04C09BB190629BB969
S113020003C09BB19F7D9BB982FF04C09BB19061E9
S11302109BB903C09BB19F7E9BB9982F927081FFBD
S113022004C08BB188608BB903C08BB1877F8BB955
S1130230992321F08BB184608BB908958BB18B7FA6
S11302408BB90895CF93DF93CDB7DEB764970FB61C
S1130250F894DEBF0FBECDBF87B1806287B988B185
S1130260806288B90E948D0288B1806288B920E0DA
S113027040E060E086E50E94210288B18F7D88B964
S113028083E60E9486020E94880280E00E94860221
S11302900E948802682F70E080E090E00E942F03A3
S11302A020E030E040EA50E40E94BD0320E030E06A
S11302B04FE753E40E94BD028E010F5F1F4F22E0FF
S11302C044E00E94300488B1806288B988B18F7D8F
S11302D088B984E60E9486020E94880280E00E9417
S11302E086020E948802682F70E080E090E00E94FD
S11302F02F0320E030E040EA50E40E94BD0320E0F8
S113030030E04FE753E40E94BD02065F1F4F22E036
S113031044E00E94300488B1806288B92FEF84E3FE
S11303209CE0215080409040E1F700C0000080E054
S113033091E00E94AA02CE0101960E94AA0285E0E1
S113034091E00E94AA0287E091E00E94AA028AE05A
S113035091E00E94AA02C8010E94AA0285E091E0ED
S11303600E94AA0287E091E00E94AA0280911101F2
S11303708823E1F088B18F7D88B98CE60E948602DB
S11303800E948802809110010E9486020E948802C5
S113039088B1806288B92FEF84E39CE021508040CB
S11303A09040E1F700C0000010921101809110010B
S11303B00E94D70062CF1F920F920FB60F921124A2
S11303C02F933F934F935F936F937F938F939F9359
S11303D0AF93BF93EF93FF938091C6008A3011F0DF
S11303E08D3091F4E0911201F0E0ED5EFE4F108249
S11303F083E191E00E9450048093100181E0809396
S11304001101109212010CC0E0911201E33040F48A
S113041091E09E0F90931201F0E0ED5EFE4F808319
S1130420FF91EF91BF91AF919F918F917F916F91C8
S11304305F914F913F912F910F900FBE0F901F909E
S11304401895E82F84FF52C084B18C6284B984B1BA
S11304508F7E84B98CB580618CBDE7708E2F90E05F
S11304608730910508F04BC0FC01EC5CFF4F0C9405
S11304702A048CB58C7F8CBD8DB581608DBD3FC049
S11304808CB58C7F8CBD8DB58E7F8DBD38C08CB501
S113049081608CBD8CB58D7F8CBD8DB581608DBD2B
S11304A02EC08CB581608CBD8CB58D7F8CBD8DB517
S11304B08E7F8DBD24C08CB58E7F8CBD8CB5826043
S11304C08CBD8DB581608DBD1AC08CB58E7F8CBD01
S11304D08CB582608CBD8DB58E7F8DBD10C08CB502
S11304E083608CBD8DB58E7F8DBD09C084B1806164
S11304F084B984B1837D84B98CB58F7E8CBD8CB571
S1130500462B242B282B20642CBD08958EBD0895E2
S11305100DB407FEFDCF8EB508958AB182608AB905
S11305208AB18E7F8AB982E08093C0008FEC90E01C
S11305309093C5008093C40088E98093C10086E04D
S11305408093C20008959091C00095FFFCCF8093E2
S1130550C60008950F931F93CF938C01C0E003C08E
S11305600E94A302CF5FF801EC0FF11D808181117D
S1130570F7CFCF911F910F9108950E94D1020C944F
S113058083030E947C0358F00E94750340F029F411
S11305905F3F29F00C946C0351110C94B7030C9435
S11305A072030E94940368F39923B1F3552391F3E2
S11305B0951B550BBB27AA2762177307840738F0CE
S11305C09F5F5F4F220F331F441FAA1FA9F335D02B
S11305D00E2E3AF0E0E832D091505040E695001CDF
S11305E0CAF72BD0FE2F29D0660F771F881FBB1F99
S11305F0261737074807AB07B0E809F0BB0B802D77
S1130600BF01FF2793585F4F3AF09E3F510578F0A2
S11306100C946C030C94B7035F3FE4F3983ED4F35B
S1130620869577956795B795F7959F5FC9F7880F76
S1130630911D9695879597F90895E1E0660F771FC8
S1130640881FBB1F621773078407BA0720F0621B59
S1130650730B840BBA0BEE1F88F7E0950895E894AA
S113066009C097FB3EF490958095709561957F4FF6
S11306708F4F9F4F9923A9F0F92F96E9BB279395A4
S1130680F695879577956795B795F111F8CFFAF4B4
S1130690BB0F11F460FF1BC06F5F7F4F8F4F9F4FE5
S11306A016C0882311F096E911C0772321F09EE843
S11306B0872F762F05C0662371F096E8862F70E0A9
S11306C060E02AF09A95660F771F881FDAF7880F83
S11306D09695879597F9089597F99F6780E870E054
S11306E060E008959FEF80EC089500240A941616A4
S11306F0170618060906089500240A94121613060C
S1130700140605060895092E0394000C11F4882399
S113071052F0BB0F40F4BF2B11F460FF04C06F5FB5
S11307207F4F8F4F9F4F089557FD9058440F551F8B
S113073059F05F3F71F04795880F97FB991F61F05F
S11307409F3F79F087950895121613061406551FD6
S1130750F2CF4695F1DF08C0161617061806991F42
S1130760F1CF86957105610508940895E894BB2737
S113077066277727CB0197F908950E94D0030C943C
S113078083030E94750338F00E947C0320F09523B4
S113079011F00C946C030C94720311240C94B703A1
S11307A00E94940370F3959FC1F3950F50E0551F79
S11307B0629FF001729FBB27F00DB11D639FAA27B2
S11307C0F00DB11DAA1F649F6627B00DA11D661F01
S11307D0829F2227B00DA11D621F739FB00DA11D22
S11307E0621F839FA00D611D221F749F3327A00DDC
S11307F0611D231F849F600D211D822F762F6A2F78
S113080011249F5750409AF0F1F088234AF0EE0FDC
S1130810FF1FBB1F661F771F881F91505040A9F709
S11308209E3F510580F00C946C030C94B7035F3F1A
S1130830E4F3983ED4F3869577956795B795F79545
S1130840E7959F5FC1F7FE2B880F911D96958795BD
S113085097F90895EE0FFF1F0590F491E02D099488
S1130860EF920F931F93CF93DF93E80147FD02C0EC
S113087034E001C034E1042E000C550B57FF03C0D3
S1130880519541955109E32E022F242FAE010E9468
S11308907604CE01DF91CF911F910F91EF900895CF
S11308A0FC0188279927E89421912032E9F3293023
S11308B010F02E30C8F32B3241F02D3239F4689405
S11308C004C00E946E04820F911D219120532A308E
S11308D0C0F31EF4909581959F4F08957AE0979FF9
S11308E0902D879F802D910D11240895A9E0B0E0EB
S11308F0ECE7F4E00C94AE066A01122FB02E2BE361
S1130900201720F0FF24F394F00E02C02CE3F22E03
S11309100F2D27E0AE014F5F5F4F0E94D005BC0151
S11309204981842F8970813031F0E1FC06C0E0FEFA
S113093006C090E205C09DE203C09BE201C090E0C6
S11309405E2D507143FF3CC0911102C083E001C091
S113095084E0811718F4212F281B01C020E05111D5
S11309600BC0F601822F30E2882319F031938150B5
S1130970FBCFC20ED11C20E0992329F0D6019C9311
S1130980F60131966F01C6010396E2FE0AC03EE409
S1130990D6013C9341E411964C93119712963C93E3
S11309A006C03EE6F601308341E641833283FC0112
S11309B0322F40E2332309F442C041933150FACF3D
S11309C042FF44C0911102C083E001C084E081175A
S11309D018F4212F281B01C020E051110BC0F6018F
S11309E0822F30E2882319F031938150FBCFC20E5D
S11309F0D11C20E0992329F0D6019C93F60131966D
S1130A006F01C6010396E2FE0BC039E4D6013C93A4
S1130A103EE411963C93119736E412963C9307C03A
S1130A2039E6F60130833EE6318336E63283FC0153
S1130A30322F40E2332319F041933150FBCFFC01B4
S1130A40E20FF11D10828EEF9FEFA6C021E030E08F
S1130A50911102C020E030E0161617061CF4FB01C9
S1130A60319602C0E1E0F0E02E0F3F1FBB2021F0E1
S1130A70EB2DF0E0319602C0E0E0F0E02E0F3F1FD6
S1130A80E12FF0E02E173F071CF4121B212F01C0A9
S1130A9020E08E2D887159F4F601822F30E28823EC
S1130AA019F031938150FBCFC20ED11C20E0992361
S1130AB029F0D6019C93F60131966F0151110BC0B8
S1130AC0F601822F90E3882319F091938150FBCF94
S1130AD0C20ED11C20E00F2D060F9A81342F3071E5
S1130AE044FF03C0913309F40150101624F4093073
S1130AF018F008E001C001E0AB0177FF02C040E05C
S1130B0050E0FB01E41BF50BA1E0B0E0AC0FBD1F0E
S1130B10EA0FFB1F8EE2A82E4B01801A91080B2DC1
S1130B2010E01195019511094F3FBFEF5B0721F4C8
S1130B30D601AC9211966D01641775072CF08416DA
S1130B40950614F4818101C080E341505109319626
S1130B50D60111967D014017510724F0D6018C93DC
S1130B606701E2CF6417750739F4963320F495339F
S1130B7019F4311101C081E3F6018083F701822F5A
S1130B8090E2882319F091938150FBCFF701E20F93
S1130B90F11D108280E090E02996ECE00C94CA06E6
S1130BA0283008F027E03327DA01990F311D87FD3B
S1130BB0916000966105710539F432602E5F3D93B2
S1130BC030E32A95E1F708959F3F30F080387105AE
S1130BD0610509F03C5F3C5F3D93913008F080680B
S1130BE0911DDF93CF931F930F93FF92EF92192FD1
S1130BF0987F9695E92F96959695E90FFF27E053F0
S1130C00FF4F99273327EE24FF24A701E70105901E
S1130C100894079428F4360FE71EF81E491F511D47
S1130C20660F771F881F991F0694A1F705900794F4
S1130C3028F4E70EF81E491F561FC11D770F881FA1
S1130C40991F661F0694A1F70590079428F4F80EDF
S1130C50491F561FC71FD11D880F991F661F771F75
S1130C600694A1F70590079420F4490F561FC71F57
S1130C70D81F990F661F771F881F0694A9F78491C0
S1130C801095177041F0D695C79557954795F794E9
S1130C90E7941A95C1F7E6E7F0E06894159015918A
S1130CA035916591959105907FE27395E118F10A6C
S1130CB0430B560BC90BD009C0F7E10CF11E431FBF
S1130CC0561FC91FD01D7EF4703311F48A95E6CFE8
S1130CD0E894015030F0080F0AF40027021708F4D2
S1130CE0202F2395022F7A3328F079E37D932A95D8
S1130CF0E9F710C07D932A9589F606949795679530
S1130D00379517951794E118F10A430B560BC90B45
S1130D10D00998F023957E9173957A3308F070E3A7
S1130D207C932013B8F77E9170617D9330F08395A6
S1130D3071E37D9370E32A95E1F71124EF90FF901E
S1130D400F911F91CF91DF91992787FD9095089579
S1130D502F923F924F925F926F927F928F929F92C7
S1130D60AF92BF92CF92DF92EF92FF920F931F93B5
S1130D70CF93DF93CDB7DEB7CA1BDB0B0FB6F89466
S1130D80DEBF0FBECDBF09942A88398848885F84A6
S1130D906E847D848C849B84AA84B984C884DF8017
S1130DA0EE80FD800C811B81AA81B981CE0FD11DFB
S1130DB00FB6F894DEBF0FBECDBFED010895F894D1
S1050DC0FFCF5F
S1130DC253313A200056000D0A0053323A200000F3
S9030000FC
