:100000000C9434000C9451000C9451000C94060193
:100010000C94B8000C9451000C9451000C945100B5
:100020000C9451000C9451000C9451000C94170145
:100030000C9451000C9451000C9451000C945100FC
:100040000C9451000C9451000C9451000C945100EC
:100050000C9451000C9451000C9451000C945100DC
:100060000C9451000C94510011241FBECFEFD8E026
:10007000DEBFCDBF11E0A0E0B1E0E2EBF2E002C0F4
:1000800005900D92AC30B107D9F721E0ACE0B1E0BA
:1000900001C01D92A131B207E1F70E94B5000C9496
:1000A00057010C940000E82FF0E0EE0FFF1FE05026
:1000B000FF4F80818BB90895F8948FEF8AB984B18E
:1000C0008F6084B984B18F7D84B985B1806285B930
:1000D00087B18F6087B987B18F7E87B987B18F7DF0
:1000E00087B988B1806388B91092C100E8E6F0E072
:1000F000808181608083ABE6B0E08C9180628C93DC
:10010000808182608083ECE6F0E080818063808380
:1001100015B818B81092100110920F0183B186B172
:10012000E1E6F0E080E8808384E080831092800044
:10013000E1E8F0E0108280818860808388E09DE3C0
:100140009093890080938800AFE6B0E08C91826044
:100150008C93109285001092840086B3826086BBD7
:10016000808183608083789408950E945C00FFCF33
:100170001F920F920FB60F9211248F939F9380912D
:100180000D018130E1F534991CC085B190911001C9
:10019000807F892B85B9809110018F5F809310013A
:1001A00080911001843069F410920D0110920E01BB
:1001B0001092100110920F018FE085B918B880E3FA
:1001C0008BB935991CC088B190910F01807F892B24
:1001D00088B980910F018F5F80930F0180910F018B
:1001E000843069F410920D0110920E0110921001EA
:1001F00010920F0115B88FE088B98DE68BB99F91E9
:100200008F910F900FBE0F901F9018951F920F9215
:100210000FB60F9211248F931D9903C081E0809334
:100220000E018F910F900FBE0F901F9018951F9287
:100230000F920FB60F9211242F933F934F935F931A
:100240006F937F938F939F93AF93BF93EF93FF939E
:1002500080910E018130D1F480910C010E945300F5
:1002600080910C018F5F80930C0180910C0186308E
:1002700069F410920C0181E080930D0110920E013F
:100280001092100110920F0115B818B8FF91EF915C
:10029000BF91AF919F918F917F916F915F914F919E
:1002A0003F912F910F900FBE0F901F901895F894CB
:0202B000FFCF7E
:0C02B2005B00330079006D003000FE009E
:00000001FF
