:100000000C943B000C944D000C944D000C944D004E
:100010000C944D000C944D000C944D000C944D002C
:100020000C944D000C944D000C944D000C944D001C
:100030000C944D000C944D000C944D000C944D000C
:100040000C944D000C94C3000C944D000C944D0086
:100050000C944D000C94A2000C944D000C944D0097
:100060000C944D000C944D00F300FA0001010B01BB
:1000700015011F01290111241FBECFEFD8E0DEBFFB
:10008000CDBF21E0A0E0B1E001C01D92A430B207D5
:10009000E1F70E948A000C944B010C9400008091BF
:1000A0000001882319F0813089F00895ECE7F0E031
:1000B0001082808182668083EAE7F0E0108280818E
:1000C0008B6880838081806480830895ECE7F0E012
:1000D0001082808181668083EAE7F0E0108280816F
:1000E0008B6880838081806480830895F89487B1D1
:1000F0008E7F87B987B18D7F87B987B18B7F87B9AD
:1001000088B1876088B98AB18FEF8AB90E944F00A1
:10011000789408950E94760020E040E060E080E45A
:100120000E94DB000E944F008CB580688CBDEAE71E
:10013000F0E08081806480830E944001809301010F
:100140008BB9F5CF1F920F920FB60F9211248F9398
:1001500080910001882319F0813049F00EC0809110
:1001600079008093030181E08093000106C08091B3
:10017000790080930201109200018F910F900FBEC1
:100180000F901F9018951F920F920FB60F92112487
:100190008F938EB5833621F4809103018EBD05C007
:1001A000843619F4809102018EBD8F910F900FBE9D
:1001B0000F901F901895E82F84FF52C084B18C6275
:1001C00084B984B18F7E84B98CB580618CBDE770B1
:1001D0008E2F90E08730910508F04BC0FC01EC5C5D
:1001E000FF4F0C9445018CB58C7F8CBD8DB5816023
:1001F0008DBD3FC08CB58C7F8CBD8DB58E7F8DBD88
:1002000038C08CB581608CBD8CB58D7F8CBD8DB5B3
:1002100081608DBD2EC08CB581608CBD8CB58D7F0D
:100220008CBD8DB58E7F8DBD24C08CB58E7F8CBD71
:100230008CB582608CBD8DB581608DBD1AC08CB5CA
:100240008E7F8CBD8CB582608CBD8DB58E7F8DBD53
:1002500010C08CB583608CBD8DB58E7F8DBD09C0FF
:1002600084B1806184B984B1837D84B98CB58F7E7B
:100270008CBD8CB5462B242B282B20642CBD0895D7
:100280000DB407FEFDCF8EB50895EE0FFF1F05904C
:0A029000F491E02D0994F894FFCFDB
:00000001FF
